{
  "abi": [
    {
      "inputs": [
        {
          "internalType": "contract Comptroller",
          "name": "_comptroller",
          "type": "address"
        },
        {
          "internalType": "contract TimelockController",
          "name": "_timelock",
          "type": "address"
        },
        {
          "internalType": "contract Authority",
          "name": "_authority",
          "type": "address"
        }
      ],
      "stateMutability": "nonpayable",
      "type": "constructor"
    },
    {
      "inputs": [],
      "name": "ComptrollerError",
      "type": "error"
    },
    {
      "anonymous": false,
      "inputs": [
        {
          "indexed": true,
          "internalType": "address",
          "name": "user",
          "type": "address"
        },
        {
          "indexed": true,
          "internalType": "contract Authority",
          "name": "newAuthority",
          "type": "address"
        }
      ],
      "name": "AuthorityUpdated",
      "type": "event"
    },
    {
      "anonymous": false,
      "inputs": [
        {
          "indexed": true,
          "internalType": "address",
          "name": "user",
          "type": "address"
        },
        {
          "indexed": true,
          "internalType": "address",
          "name": "newOwner",
          "type": "address"
        }
      ],
      "name": "OwnerUpdated",
      "type": "event"
    },
    {
      "inputs": [],
      "name": "CTOKEN_IMPL",
      "outputs": [
        {
          "internalType": "address",
          "name": "",
          "type": "address"
        }
      ],
      "stateMutability": "view",
      "type": "function"
    },
    {
      "inputs": [],
      "name": "REVERSE_REGISTRAR",
      "outputs": [
        {
          "internalType": "contract IReverseRegistrar",
          "name": "",
          "type": "address"
        }
      ],
      "stateMutability": "view",
      "type": "function"
    },
    {
      "inputs": [],
      "name": "ZERO_IRM",
      "outputs": [
        {
          "internalType": "address",
          "name": "",
          "type": "address"
        }
      ],
      "stateMutability": "view",
      "type": "function"
    },
    {
      "inputs": [],
      "name": "_acceptAdmin",
      "outputs": [],
      "stateMutability": "nonpayable",
      "type": "function"
    },
    {
      "inputs": [
        {
          "internalType": "address",
          "name": "distributor",
          "type": "address"
        }
      ],
      "name": "_addRewardsDistributor",
      "outputs": [],
      "stateMutability": "nonpayable",
      "type": "function"
    },
    {
      "inputs": [
        {
          "internalType": "address",
          "name": "underlying",
          "type": "address"
        },
        {
          "internalType": "address",
          "name": "irm",
          "type": "address"
        },
        {
          "internalType": "string",
          "name": "name",
          "type": "string"
        },
        {
          "internalType": "string",
          "name": "symbol",
          "type": "string"
        },
        {
          "internalType": "address",
          "name": "impl",
          "type": "address"
        },
        {
          "internalType": "bytes",
          "name": "data",
          "type": "bytes"
        },
        {
          "internalType": "uint256",
          "name": "reserveFactor",
          "type": "uint256"
        },
        {
          "internalType": "uint256",
          "name": "adminFee",
          "type": "uint256"
        },
        {
          "internalType": "uint256",
          "name": "collateralFactorMantissa",
          "type": "uint256"
        }
      ],
      "name": "_deployMarket",
      "outputs": [],
      "stateMutability": "nonpayable",
      "type": "function"
    },
    {
      "inputs": [
        {
          "internalType": "address",
          "name": "newBorrowCapGuardian",
          "type": "address"
        }
      ],
      "name": "_setBorrowCapGuardian",
      "outputs": [],
      "stateMutability": "nonpayable",
      "type": "function"
    },
    {
      "inputs": [
        {
          "internalType": "contract CERC20",
          "name": "cToken",
          "type": "address"
        },
        {
          "internalType": "bool",
          "name": "state",
          "type": "bool"
        }
      ],
      "name": "_setBorrowPaused",
      "outputs": [
        {
          "internalType": "bool",
          "name": "",
          "type": "bool"
        }
      ],
      "stateMutability": "nonpayable",
      "type": "function"
    },
    {
      "inputs": [
        {
          "internalType": "contract ERC20",
          "name": "underlying",
          "type": "address"
        },
        {
          "internalType": "bool",
          "name": "state",
          "type": "bool"
        }
      ],
      "name": "_setBorrowPausedByUnderlying",
      "outputs": [
        {
          "internalType": "bool",
          "name": "",
          "type": "bool"
        }
      ],
      "stateMutability": "nonpayable",
      "type": "function"
    },
    {
      "inputs": [
        {
          "internalType": "uint256",
          "name": "newCloseFactorMantissa",
          "type": "uint256"
        }
      ],
      "name": "_setCloseFactor",
      "outputs": [],
      "stateMutability": "nonpayable",
      "type": "function"
    },
    {
      "inputs": [
        {
          "internalType": "contract CERC20",
          "name": "cToken",
          "type": "address"
        },
        {
          "internalType": "uint256",
          "name": "newCollateralFactorMantissa",
          "type": "uint256"
        }
      ],
      "name": "_setCollateralFactor",
      "outputs": [],
      "stateMutability": "nonpayable",
      "type": "function"
    },
    {
      "inputs": [
        {
          "internalType": "uint256",
          "name": "newLiquidationIncentiveMantissa",
          "type": "uint256"
        }
      ],
      "name": "_setLiquidationIncentive",
      "outputs": [],
      "stateMutability": "nonpayable",
      "type": "function"
    },
    {
      "inputs": [
        {
          "internalType": "contract CERC20[]",
          "name": "cTokens",
          "type": "address[]"
        },
        {
          "internalType": "uint256[]",
          "name": "newBorrowCaps",
          "type": "uint256[]"
        }
      ],
      "name": "_setMarketBorrowCaps",
      "outputs": [],
      "stateMutability": "nonpayable",
      "type": "function"
    },
    {
      "inputs": [
        {
          "internalType": "address[]",
          "name": "underlyings",
          "type": "address[]"
        },
        {
          "internalType": "uint256[]",
          "name": "newBorrowCaps",
          "type": "uint256[]"
        }
      ],
      "name": "_setMarketBorrowCapsByUnderlying",
      "outputs": [],
      "stateMutability": "nonpayable",
      "type": "function"
    },
    {
      "inputs": [
        {
          "internalType": "contract CERC20[]",
          "name": "cTokens",
          "type": "address[]"
        },
        {
          "internalType": "uint256[]",
          "name": "newSupplyCaps",
          "type": "uint256[]"
        }
      ],
      "name": "_setMarketSupplyCaps",
      "outputs": [],
      "stateMutability": "nonpayable",
      "type": "function"
    },
    {
      "inputs": [
        {
          "internalType": "address[]",
          "name": "underlyings",
          "type": "address[]"
        },
        {
          "internalType": "uint256[]",
          "name": "newSupplyCaps",
          "type": "uint256[]"
        }
      ],
      "name": "_setMarketSupplyCapsByUnderlying",
      "outputs": [],
      "stateMutability": "nonpayable",
      "type": "function"
    },
    {
      "inputs": [
        {
          "internalType": "contract CERC20",
          "name": "cToken",
          "type": "address"
        },
        {
          "internalType": "bool",
          "name": "state",
          "type": "bool"
        }
      ],
      "name": "_setMintPaused",
      "outputs": [
        {
          "internalType": "bool",
          "name": "",
          "type": "bool"
        }
      ],
      "stateMutability": "nonpayable",
      "type": "function"
    },
    {
      "inputs": [
        {
          "internalType": "contract ERC20",
          "name": "underlying",
          "type": "address"
        },
        {
          "internalType": "bool",
          "name": "state",
          "type": "bool"
        }
      ],
      "name": "_setMintPausedByUnderlying",
      "outputs": [
        {
          "internalType": "bool",
          "name": "",
          "type": "bool"
        }
      ],
      "stateMutability": "nonpayable",
      "type": "function"
    },
    {
      "inputs": [
        {
          "internalType": "address",
          "name": "newPauseGuardian",
          "type": "address"
        }
      ],
      "name": "_setPauseGuardian",
      "outputs": [
        {
          "internalType": "uint256",
          "name": "",
          "type": "uint256"
        }
      ],
      "stateMutability": "nonpayable",
      "type": "function"
    },
    {
      "inputs": [
        {
          "internalType": "address",
          "name": "newPendingAdmin",
          "type": "address"
        }
      ],
      "name": "_setPendingAdmin",
      "outputs": [],
      "stateMutability": "nonpayable",
      "type": "function"
    },
    {
      "inputs": [
        {
          "internalType": "address",
          "name": "newOracle",
          "type": "address"
        }
      ],
      "name": "_setPriceOracle",
      "outputs": [],
      "stateMutability": "nonpayable",
      "type": "function"
    },
    {
      "inputs": [
        {
          "internalType": "bool",
          "name": "state",
          "type": "bool"
        }
      ],
      "name": "_setSeizePaused",
      "outputs": [
        {
          "internalType": "bool",
          "name": "",
          "type": "bool"
        }
      ],
      "stateMutability": "nonpayable",
      "type": "function"
    },
    {
      "inputs": [
        {
          "internalType": "bool",
          "name": "state",
          "type": "bool"
        }
      ],
      "name": "_setTransferPaused",
      "outputs": [
        {
          "internalType": "bool",
          "name": "",
          "type": "bool"
        }
      ],
      "stateMutability": "nonpayable",
      "type": "function"
    },
    {
      "inputs": [
        {
          "internalType": "bool",
          "name": "enforce",
          "type": "bool"
        }
      ],
      "name": "_setWhitelistEnforcement",
      "outputs": [],
      "stateMutability": "nonpayable",
      "type": "function"
    },
    {
      "inputs": [
        {
          "internalType": "address[]",
          "name": "suppliers",
          "type": "address[]"
        },
        {
          "internalType": "bool[]",
          "name": "statuses",
          "type": "bool[]"
        }
      ],
      "name": "_setWhitelistStatuses",
      "outputs": [],
      "stateMutability": "nonpayable",
      "type": "function"
    },
    {
      "inputs": [
        {
          "internalType": "bool",
          "name": "enabled",
          "type": "bool"
        }
      ],
      "name": "_toggleAutoImplementations",
      "outputs": [],
      "stateMutability": "nonpayable",
      "type": "function"
    },
    {
      "inputs": [
        {
          "internalType": "contract CERC20",
          "name": "cToken",
          "type": "address"
        }
      ],
      "name": "_unsupportMarket",
      "outputs": [],
      "stateMutability": "nonpayable",
      "type": "function"
    },
    {
      "inputs": [
        {
          "internalType": "address",
          "name": "underlying",
          "type": "address"
        },
        {
          "internalType": "string",
          "name": "name",
          "type": "string"
        },
        {
          "internalType": "string",
          "name": "symbol",
          "type": "string"
        },
        {
          "internalType": "uint256",
          "name": "collateralFactorMantissa",
          "type": "uint256"
        },
        {
          "internalType": "uint256",
          "name": "supplyCap",
          "type": "uint256"
        }
      ],
      "name": "addCollateral",
      "outputs": [],
      "stateMutability": "nonpayable",
      "type": "function"
    },
    {
      "inputs": [],
      "name": "authority",
      "outputs": [
        {
          "internalType": "contract Authority",
          "name": "",
          "type": "address"
        }
      ],
      "stateMutability": "view",
      "type": "function"
    },
    {
      "inputs": [
        {
          "internalType": "bytes32",
          "name": "id",
          "type": "bytes32"
        }
      ],
      "name": "cancel",
      "outputs": [],
      "stateMutability": "nonpayable",
      "type": "function"
    },
    {
      "inputs": [],
      "name": "comptroller",
      "outputs": [
        {
          "internalType": "contract Comptroller",
          "name": "",
          "type": "address"
        }
      ],
      "stateMutability": "view",
      "type": "function"
    },
    {
      "inputs": [
        {
          "internalType": "address",
          "name": "target",
          "type": "address"
        },
        {
          "internalType": "bytes",
          "name": "data",
          "type": "bytes"
        },
        {
          "internalType": "bytes32",
          "name": "salt",
          "type": "bytes32"
        }
      ],
      "name": "execute",
      "outputs": [],
      "stateMutability": "nonpayable",
      "type": "function"
    },
    {
      "inputs": [
        {
          "internalType": "address[]",
          "name": "underlyings",
          "type": "address[]"
        },
        {
          "internalType": "address[]",
          "name": "_oracles",
          "type": "address[]"
        }
      ],
      "name": "oracleAdd",
      "outputs": [],
      "stateMutability": "nonpayable",
      "type": "function"
    },
    {
      "inputs": [
        {
          "internalType": "address",
          "name": "newAdmin",
          "type": "address"
        }
      ],
      "name": "oracleChangeAdmin",
      "outputs": [],
      "stateMutability": "nonpayable",
      "type": "function"
    },
    {
      "inputs": [],
      "name": "owner",
      "outputs": [
        {
          "internalType": "address",
          "name": "",
          "type": "address"
        }
      ],
      "stateMutability": "view",
      "type": "function"
    },
    {
      "inputs": [
        {
          "internalType": "address",
          "name": "target",
          "type": "address"
        },
        {
          "internalType": "bytes",
          "name": "data",
          "type": "bytes"
        }
      ],
      "name": "schedule",
      "outputs": [],
      "stateMutability": "nonpayable",
      "type": "function"
    },
    {
      "inputs": [
        {
          "internalType": "address",
          "name": "newPendingAdmin",
          "type": "address"
        }
      ],
      "name": "scheduleSetPendingAdmin",
      "outputs": [],
      "stateMutability": "nonpayable",
      "type": "function"
    },
    {
      "inputs": [
        {
          "internalType": "contract Authority",
          "name": "newAuthority",
          "type": "address"
        }
      ],
      "name": "setAuthority",
      "outputs": [],
      "stateMutability": "nonpayable",
      "type": "function"
    },
    {
      "inputs": [
        {
          "internalType": "string",
          "name": "name",
          "type": "string"
        }
      ],
      "name": "setENSName",
      "outputs": [],
      "stateMutability": "nonpayable",
      "type": "function"
    },
    {
      "inputs": [
        {
          "internalType": "address",
          "name": "newOwner",
          "type": "address"
        }
      ],
      "name": "setOwner",
      "outputs": [],
      "stateMutability": "nonpayable",
      "type": "function"
    },
    {
      "inputs": [],
      "name": "timelock",
      "outputs": [
        {
          "internalType": "contract TimelockController",
          "name": "",
          "type": "address"
        }
      ],
      "stateMutability": "view",
      "type": "function"
    }
  ],
  "bytecode": {
    "object": "0x60c06040523480156200001157600080fd5b5060405162002fc938038062002fc98339810160408190526200003491620000f2565b600080546001600160a01b03199081168255600180549091166001600160a01b0384161790556040518290829033907f8292fce18fa69edf4db7b94ea2e58241df0ae57f97e0a6c9b29067028bf92d76908390a36040516001600160a01b0382169033907fa3396fd7f6e0a21b50e5089d2da70d5ac0a3bbbd1f617a93f134b7638998019890600090a35050506001600160a01b039182166080521660a05262000146565b6001600160a01b0381168114620000ef57600080fd5b50565b6000806000606084860312156200010857600080fd5b83516200011581620000d9565b60208501519093506200012881620000d9565b60408501519092506200013b81620000d9565b809150509250925092565b60805160a051612d6f6200025a6000396000818161055f0152818161139901528181611587015281816118090152612185015260008181610399015281816106eb015281816107b10152818161087c015281816109ae01528181610aaf01528181610b7901528181610bfb01528181610ed601528181610f3c01528181610ff9015281816110b6015281816111da0152818161129b0152818161131b0152818161141001528181611490015281816115f201528181611724015281816118b50152818161192001528181611a1301528181611aa201528181611b8301528181611c2c01528181611d2401528181611e9701528181611f3101528181611fb9015281816120fa015261214a0152612d6f6000f3fe608060405234801561001057600080fd5b50600436106102535760003560e01c80638da5cb5b11610146578063c4d252f5116100c3578063d33219b411610087578063d33219b41461055a578063d533316614610581578063e4028eee14610594578063e4c54ce6146105a7578063e9c714f2146105ba578063f8037fad146105c257600080fd5b8063c4d252f5146104fb578063c72b1cd61461050e578063c8c9c97514610521578063c97b247c14610534578063d0e062d21461054757600080fd5b8063b571140c1161010a578063b571140c14610494578063b71d1a0c146104af578063b9b5b153146104c2578063b9d35498146104d5578063bf7e214f146104e857600080fd5b80638da5cb5b1461042d5780638ebf636414610440578063952899fc14610453578063952adf5a1461046e578063b2fe131e1461048157600080fd5b806351a485e4116101d45780636508f8e3116101985780636508f8e3146103ce57806377dd4ac3146103e15780637a9e5e4b146103f4578063819605a8146104075780638c60472b1461041a57600080fd5b806351a485e41461034d57806355ee1fe1146103605780635f5af1aa146103735780635fe3b56714610394578063607ef6c1146103bb57600080fd5b806332501f831161021b57806332501f83146102ee578063391957d7146103015780633bcf7ec1146103145780634624c512146103275780634fd42e171461033a57600080fd5b806313af40351461025857806318c882a51461026d5780632d70db7814610295578063317b0b77146102a85780633221fdbb146102bb575b600080fd5b61026b61026636600461225e565b6105d5565b005b61028061027b366004612289565b61065b565b60405190151581526020015b60405180910390f35b6102806102a33660046122c2565b6106a0565b61026b6102b63660046122df565b610769565b6102d673c9db5a1034bcbcca3f59dd61dbee31b78cefd12681565b6040516001600160a01b03909116815260200161028c565b61026b6102fc36600461225e565b610848565b61026b61030f36600461225e565b61095d565b610280610322366004612289565b6109dd565b61026b610335366004612343565b610a1b565b61026b6103483660046122df565b610a67565b61026b61035b3660046123f4565b610ae6565b61026b61036e36600461225e565b610b28565b61038661038136600461225e565b610ba8565b60405190815260200161028c565b6102d67f000000000000000000000000000000000000000000000000000000000000000081565b61026b6103c93660046123f4565b610c68565b61026b6103dc366004612343565b610ca5565b61026b6103ef366004612523565b610ceb565b61026b61040236600461225e565b610d9b565b61026b61041536600461225e565b610e85565b61026b6104283660046125ac565b610f05565b6000546102d6906001600160a01b031681565b61028061044e3660046122c2565b611250565b6102d673084b1c3c81545d370f3634392de611caabff814881565b61026b61047c3660046122c2565b6112d2565b61026b61048f36600461265d565b611352565b6102d67367db14e73c2dce786b5bbbfa4d010deab4bbfcf981565b61026b6104bd36600461225e565b61138e565b61026b6104d036600461225e565b61143f565b61026b6104e336600461225e565b6114bf565b6001546102d6906001600160a01b031681565b61026b6105093660046122df565b61153f565b61026b61051c366004612343565b6115be565b61026b61052f366004612343565b6116db565b61026b6105423660046126ac565b6117c0565b61026b610555366004612704565b61187e565b6102d67f000000000000000000000000000000000000000000000000000000000000000081565b61026b61058f3660046122c2565b6119ca565b61026b6105a23660046127fc565b611a4a565b6102806105b5366004612289565b611b2d565b61026b611c2a565b6102806105d0366004612289565b611cce565b6105eb336000356001600160e01b031916611dc3565b6106105760405162461bcd60e51b815260040161060790612828565b60405180910390fd5b600080546001600160a01b0319166001600160a01b0383169081178255604051909133917f8292fce18fa69edf4db7b94ea2e58241df0ae57f97e0a6c9b29067028bf92d769190a350565b6000610673336000356001600160e01b031916611dc3565b61068f5760405162461bcd60e51b815260040161060790612828565b6106998383611e6d565b9392505050565b60006106b8336000356001600160e01b031916611dc3565b6106d45760405162461bcd60e51b815260040161060790612828565b6040516305ae1b6f60e31b815282151560048201527f00000000000000000000000000000000000000000000000000000000000000006001600160a01b031690632d70db78906024015b6020604051808303816000875af115801561073d573d6000803e3d6000fd5b505050506040513d601f19601f82011682018060405250810190610761919061284e565b90505b919050565b61077f336000356001600160e01b031916611dc3565b61079b5760405162461bcd60e51b815260040161060790612828565b60405163317b0b7760e01b8152600481018290527f00000000000000000000000000000000000000000000000000000000000000006001600160a01b03169063317b0b77906024015b6020604051808303816000875af1158015610803573d6000803e3d6000fd5b505050506040513d601f19601f82011682018060405250810190610827919061286b565b15610845576040516389253e1960e01b815260040160405180910390fd5b50565b61085e336000356001600160e01b031916611dc3565b61087a5760405162461bcd60e51b815260040161060790612828565b7f00000000000000000000000000000000000000000000000000000000000000006001600160a01b0316637dc0d1d06040518163ffffffff1660e01b8152600401602060405180830381865afa1580156108d8573d6000803e3d6000fd5b505050506040513d601f19601f820116820180604052508101906108fc9190612884565b6040516308f2839760e41b81526001600160a01b0383811660048301529190911690638f283970906024015b600060405180830381600087803b15801561094257600080fd5b505af1158015610956573d6000803e3d6000fd5b5050505050565b610973336000356001600160e01b031916611dc3565b61098f5760405162461bcd60e51b815260040161060790612828565b60405163391957d760e01b81526001600160a01b0382811660048301527f0000000000000000000000000000000000000000000000000000000000000000169063391957d790602401610928565b60006109f5336000356001600160e01b031916611dc3565b610a115760405162461bcd60e51b815260040161060790612828565b6106998383611f07565b610a31336000356001600160e01b031916611dc3565b610a4d5760405162461bcd60e51b815260040161060790612828565b610a61610a5a8585611f62565b83836120e3565b50505050565b610a7d336000356001600160e01b031916611dc3565b610a995760405162461bcd60e51b815260040161060790612828565b604051634fd42e1760e01b8152600481018290527f00000000000000000000000000000000000000000000000000000000000000006001600160a01b031690634fd42e17906024016107e4565b610afc336000356001600160e01b031916611dc3565b610b185760405162461bcd60e51b815260040161060790612828565b610b23838383612133565b505050565b610b3e336000356001600160e01b031916611dc3565b610b5a5760405162461bcd60e51b815260040161060790612828565b6040516355ee1fe160e01b81526001600160a01b0382811660048301527f000000000000000000000000000000000000000000000000000000000000000016906355ee1fe1906024016107e4565b6000610bc0336000356001600160e01b031916611dc3565b610bdc5760405162461bcd60e51b815260040161060790612828565b604051632fad78d560e11b81526001600160a01b0383811660048301527f00000000000000000000000000000000000000000000000000000000000000001690635f5af1aa906024016020604051808303816000875af1158015610c44573d6000803e3d6000fd5b505050506040513d601f19601f82011682018060405250810190610761919061286b565b610c7e336000356001600160e01b031916611dc3565b610c9a5760405162461bcd60e51b815260040161060790612828565b610b238383836120e3565b610cbb336000356001600160e01b031916611dc3565b610cd75760405162461bcd60e51b815260040161060790612828565b610a61610ce48585611f62565b8383612133565b610d01336000356001600160e01b031916611dc3565b610d1d5760405162461bcd60e51b815260040161060790612828565b60405163c47f002760e01b815273084b1c3c81545d370f3634392de611caabff81489063c47f002790610d549084906004016128ee565b6020604051808303816000875af1158015610d73573d6000803e3d6000fd5b505050506040513d601f19601f82011682018060405250810190610d97919061286b565b5050565b6000546001600160a01b0316331480610e30575060015460405163b700961360e01b81526001600160a01b039091169063b700961390610def90339030906001600160e01b03196000351690600401612901565b602060405180830381865afa158015610e0c573d6000803e3d6000fd5b505050506040513d601f19601f82011682018060405250810190610e30919061284e565b610e3957600080fd5b600180546001600160a01b0319166001600160a01b03831690811790915560405133907fa3396fd7f6e0a21b50e5089d2da70d5ac0a3bbbd1f617a93f134b7638998019890600090a350565b610e9b336000356001600160e01b031916611dc3565b610eb75760405162461bcd60e51b815260040161060790612828565b604051631032c0b560e31b81526001600160a01b0382811660048301527f0000000000000000000000000000000000000000000000000000000000000000169063819605a8906024016107e4565b610f1b336000356001600160e01b031916611dc3565b610f375760405162461bcd60e51b815260040161060790612828565b6000877f000000000000000000000000000000000000000000000000000000000000000073c9db5a1034bcbcca3f59dd61dbee31b78cefd126898989897367db14e73c2dce786b5bbbfa4d010deab4bbfcf9886040519080825280601f01601f191660200182016040528015610fb4576020820181803683370190505b50600080604051602001610fd29b9a99989796959493929190612957565b60408051601f19818403018152908290526315746b7360e31b825291506001600160a01b037f0000000000000000000000000000000000000000000000000000000000000000169063aba35b989061103390600090859088906004016129e5565b6020604051808303816000875af1158015611052573d6000803e3d6000fd5b505050506040513d601f19601f82011682018060405250810190611076919061286b565b15611094576040516389253e1960e01b815260040160405180910390fd5b6040516318ffa3fd60e11b81526001600160a01b0389811660048301526000917f0000000000000000000000000000000000000000000000000000000000000000909116906331ff47fa90602401602060405180830381865afa1580156110ff573d6000803e3d6000fd5b505050506040513d601f19601f820116820180604052508101906111239190612884565b9050611130816001611e6d565b5060408051600180825281830190925260009160208083019080368337019050509050818160008151811061116757611167612a10565b6001600160a01b03929092166020928302919091019091015260408051600180825281830190925260009181602001602082028036833701905050905084816000815181106111b8576111b8612a10565b6020908102919091010152604051631469217960e21b81526001600160a01b037f000000000000000000000000000000000000000000000000000000000000000016906351a485e4906112119085908590600401612a6a565b600060405180830381600087803b15801561122b57600080fd5b505af115801561123f573d6000803e3d6000fd5b505050505050505050505050505050565b6000611268336000356001600160e01b031916611dc3565b6112845760405162461bcd60e51b815260040161060790612828565b6040516323afd8d960e21b815282151560048201527f00000000000000000000000000000000000000000000000000000000000000006001600160a01b031690638ebf63649060240161071e565b6112e8336000356001600160e01b031916611dc3565b6113045760405162461bcd60e51b815260040161060790612828565b604051634a956fad60e11b815281151560048201527f00000000000000000000000000000000000000000000000000000000000000006001600160a01b03169063952adf5a906024016107e4565b611368336000356001600160e01b031916611dc3565b6113845760405162461bcd60e51b815260040161060790612828565b610d978282612183565b336001600160a01b037f000000000000000000000000000000000000000000000000000000000000000016146113f15760405162461bcd60e51b815260206004820152600860248201526774696d656c6f636b60c01b6044820152606401610607565b604051632dc7468360e21b81526001600160a01b0382811660048301527f0000000000000000000000000000000000000000000000000000000000000000169063b71d1a0c906024016107e4565b611455336000356001600160e01b031916611dc3565b6114715760405162461bcd60e51b815260040161060790612828565b60405163b9b5b15360e01b81526001600160a01b0382811660048301527f0000000000000000000000000000000000000000000000000000000000000000169063b9b5b153906024016107e4565b6114d5336000356001600160e01b031916611dc3565b6114f15760405162461bcd60e51b815260040161060790612828565b604080516001600160a01b0383166024808301919091528251808303909101815260449091019091526020810180516001600160e01b0316632dc7468360e21b179052610845903090612183565b611555336000356001600160e01b031916611dc3565b6115715760405162461bcd60e51b815260040161060790612828565b60405163c4d252f560e01b8152600481018290527f00000000000000000000000000000000000000000000000000000000000000006001600160a01b03169063c4d252f590602401610928565b6115d4336000356001600160e01b031916611dc3565b6115f05760405162461bcd60e51b815260040161060790612828565b7f00000000000000000000000000000000000000000000000000000000000000006001600160a01b0316637dc0d1d06040518163ffffffff1660e01b8152600401602060405180830381865afa15801561164e573d6000803e3d6000fd5b505050506040513d601f19601f820116820180604052508101906116729190612884565b6001600160a01b0316639c9192c6858585856040518563ffffffff1660e01b81526004016116a39493929190612aff565b600060405180830381600087803b1580156116bd57600080fd5b505af11580156116d1573d6000803e3d6000fd5b5050505050505050565b6116f1336000356001600160e01b031916611dc3565b61170d5760405162461bcd60e51b815260040161060790612828565b60405163c8c9c97560e01b81526001600160a01b037f0000000000000000000000000000000000000000000000000000000000000000169063c8c9c9759061175f908790879087908790600401612b31565b6020604051808303816000875af115801561177e573d6000803e3d6000fd5b505050506040513d601f19601f820116820180604052508101906117a2919061286b565b15610a61576040516389253e1960e01b815260040160405180910390fd5b6117d6336000356001600160e01b031916611dc3565b6117f25760405162461bcd60e51b815260040161060790612828565b60405163134008d360e01b81526001600160a01b037f0000000000000000000000000000000000000000000000000000000000000000169063134008d390611847908690600090879082908890600401612b8f565b600060405180830381600087803b15801561186157600080fd5b505af1158015611875573d6000803e3d6000fd5b50505050505050565b611894336000356001600160e01b031916611dc3565b6118b05760405162461bcd60e51b815260040161060790612828565b60008c7f00000000000000000000000000000000000000000000000000000000000000008d8d8d8d8d8d8d8d8d8d6040516020016118f99c9b9a99989796959493929190612bca565b60408051601f19818403018152908290526315746b7360e31b825291506001600160a01b037f0000000000000000000000000000000000000000000000000000000000000000169063aba35b989061195a90600090859087906004016129e5565b6020604051808303816000875af1158015611979573d6000803e3d6000fd5b505050506040513d601f19601f8201168201806040525081019061199d919061286b565b156119bb576040516389253e1960e01b815260040160405180910390fd5b50505050505050505050505050565b6119e0336000356001600160e01b031916611dc3565b6119fc5760405162461bcd60e51b815260040161060790612828565b604051636a9998b360e11b815281151560048201527f00000000000000000000000000000000000000000000000000000000000000006001600160a01b03169063d5333166906024016107e4565b611a60336000356001600160e01b031916611dc3565b611a7c5760405162461bcd60e51b815260040161060790612828565b604051637201477760e11b81526001600160a01b038381166004830152602482018390527f0000000000000000000000000000000000000000000000000000000000000000169063e4028eee906044016020604051808303816000875af1158015611aeb573d6000803e3d6000fd5b505050506040513d601f19601f82011682018060405250810190611b0f919061286b565b15610d97576040516389253e1960e01b815260040160405180910390fd5b6000611b45336000356001600160e01b031916611dc3565b611b615760405162461bcd60e51b815260040161060790612828565b6040516318ffa3fd60e11b81526001600160a01b0384811660048301526000917f0000000000000000000000000000000000000000000000000000000000000000909116906331ff47fa90602401602060405180830381865afa158015611bcc573d6000803e3d6000fd5b505050506040513d601f19601f82011682018060405250810190611bf09190612884565b90506001600160a01b038116611c185760405162461bcd60e51b815260040161060790612c4d565b611c228184611f07565b949350505050565b7f00000000000000000000000000000000000000000000000000000000000000006001600160a01b031663e9c714f26040518163ffffffff1660e01b81526004016020604051808303816000875af1158015611c8a573d6000803e3d6000fd5b505050506040513d601f19601f82011682018060405250810190611cae919061286b565b15611ccc576040516389253e1960e01b815260040160405180910390fd5b565b6000611ce6336000356001600160e01b031916611dc3565b611d025760405162461bcd60e51b815260040161060790612828565b6040516318ffa3fd60e11b81526001600160a01b0384811660048301526000917f0000000000000000000000000000000000000000000000000000000000000000909116906331ff47fa90602401602060405180830381865afa158015611d6d573d6000803e3d6000fd5b505050506040513d601f19601f82011682018060405250810190611d919190612884565b90506001600160a01b038116611db95760405162461bcd60e51b815260040161060790612c4d565b611c228184611e6d565b6001546000906001600160a01b03168015801590611e4d575060405163b700961360e01b81526001600160a01b0382169063b700961390611e0c90879030908890600401612901565b602060405180830381865afa158015611e29573d6000803e3d6000fd5b505050506040513d601f19601f82011682018060405250810190611e4d919061284e565b80611c2257506000546001600160a01b0385811691161491505092915050565b6040516318c882a560e01b81526001600160a01b03838116600483015282151560248301526000917f0000000000000000000000000000000000000000000000000000000000000000909116906318c882a5906044015b6020604051808303816000875af1158015611ee3573d6000803e3d6000fd5b505050506040513d601f19601f82011682018060405250810190610699919061284e565b604051633bcf7ec160e01b81526001600160a01b03838116600483015282151560248301526000917f000000000000000000000000000000000000000000000000000000000000000090911690633bcf7ec190604401611ec4565b60606000826001600160401b03811115611f7e57611f7e6123ae565b604051908082528060200260200182016040528015611fa7578160200160208202803683370190505b50905060005b838110156120db5760007f00000000000000000000000000000000000000000000000000000000000000006001600160a01b03166331ff47fa878785818110611ff857611ff8612a10565b905060200201602081019061200d919061225e565b6040516001600160e01b031960e084901b1681526001600160a01b039091166004820152602401602060405180830381865afa158015612051573d6000803e3d6000fd5b505050506040513d601f19601f820116820180604052508101906120759190612884565b90506001600160a01b03811661209d5760405162461bcd60e51b815260040161060790612c4d565b808383815181106120b0576120b0612a10565b6001600160a01b039092166020928302919091019091015250806120d381612c7b565b915050611fad565b509392505050565b60405163607ef6c160e01b81526001600160a01b037f0000000000000000000000000000000000000000000000000000000000000000169063607ef6c19061184790869086908690600401612ca4565b604051631469217960e21b81526001600160a01b037f000000000000000000000000000000000000000000000000000000000000000016906351a485e49061184790869086908690600401612ca4565b7f00000000000000000000000000000000000000000000000000000000000000006001600160a01b03166301d5062a836000846000801b426040516020016121cd91815260200190565b604051602081830303815290604052805190602001206213c6806040518763ffffffff1660e01b815260040161220896959493929190612cf4565b600060405180830381600087803b15801561222257600080fd5b505af1158015612236573d6000803e3d6000fd5b505050505050565b6001600160a01b038116811461084557600080fd5b80356107648161223e565b60006020828403121561227057600080fd5b81356106998161223e565b801515811461084557600080fd5b6000806040838503121561229c57600080fd5b82356122a78161223e565b915060208301356122b78161227b565b809150509250929050565b6000602082840312156122d457600080fd5b81356106998161227b565b6000602082840312156122f157600080fd5b5035919050565b60008083601f84011261230a57600080fd5b5081356001600160401b0381111561232157600080fd5b6020830191508360208260051b850101111561233c57600080fd5b9250929050565b6000806000806040858703121561235957600080fd5b84356001600160401b038082111561237057600080fd5b61237c888389016122f8565b9096509450602087013591508082111561239557600080fd5b506123a2878288016122f8565b95989497509550505050565b634e487b7160e01b600052604160045260246000fd5b604051601f8201601f191681016001600160401b03811182821017156123ec576123ec6123ae565b604052919050565b60008060006040848603121561240957600080fd5b83356001600160401b038082111561242057600080fd5b818601915086601f83011261243457600080fd5b8135602082821115612448576124486123ae565b8160051b6124578282016123c4565b928352848101820192828101908b85111561247157600080fd5b958301955b8487101561249b578635925061248b8361223e565b8282529583019590830190612476565b98505050870135925050808211156124b257600080fd5b506124bf868287016122f8565b9497909650939450505050565b60006001600160401b038311156124e5576124e56123ae565b6124f8601f8401601f19166020016123c4565b905082815283838301111561250c57600080fd5b828260208301376000602084830101529392505050565b60006020828403121561253557600080fd5b81356001600160401b0381111561254b57600080fd5b8201601f8101841361255c57600080fd5b611c22848235602084016124cc565b60008083601f84011261257d57600080fd5b5081356001600160401b0381111561259457600080fd5b60208301915083602082850101111561233c57600080fd5b600080600080600080600060a0888a0312156125c757600080fd5b87356125d28161223e565b965060208801356001600160401b03808211156125ee57600080fd5b6125fa8b838c0161256b565b909850965060408a013591508082111561261357600080fd5b506126208a828b0161256b565b989b979a5095989597966060870135966080013595509350505050565b600082601f83011261264e57600080fd5b610699838335602085016124cc565b6000806040838503121561267057600080fd5b823561267b8161223e565b915060208301356001600160401b0381111561269657600080fd5b6126a28582860161263d565b9150509250929050565b6000806000606084860312156126c157600080fd5b83356126cc8161223e565b925060208401356001600160401b038111156126e757600080fd5b6126f38682870161263d565b925050604084013590509250925092565b6000806000806000806000806000806000806101208d8f03121561272757600080fd5b6127308d612253565b9b5061273e60208e01612253565b9a506001600160401b0360408e0135111561275857600080fd5b6127688e60408f01358f0161256b565b909a5098506001600160401b0360608e0135111561278557600080fd5b6127958e60608f01358f0161256b565b90985096506127a660808e01612253565b95506001600160401b0360a08e013511156127c057600080fd5b6127d08e60a08f01358f0161256b565b9c9f9b9e50999c989b979a9699959895979660c08701359660e081013596506101000135945092505050565b6000806040838503121561280f57600080fd5b823561281a8161223e565b946020939093013593505050565b6020808252600c908201526b15539055551213d49256915160a21b604082015260600190565b60006020828403121561286057600080fd5b81516106998161227b565b60006020828403121561287d57600080fd5b5051919050565b60006020828403121561289657600080fd5b81516106998161223e565b6000815180845260005b818110156128c7576020818501810151868301820152016128ab565b818111156128d9576000602083870101525b50601f01601f19169290920160200192915050565b60208152600061069960208301846128a1565b6001600160a01b0393841681529190921660208201526001600160e01b0319909116604082015260600190565b81835281816020850137506000828201602090810191909152601f909101601f19169091010190565b6001600160a01b038c811682528b811660208301528a811660408301526101206060830181905260009161298e8483018c8e61292e565b915083820360808501526129a3828a8c61292e565b90881660a085015283810360c085015290506129bf81876128a1565b91505060ff841660e083015260ff83166101008301529c9b505050505050505050505050565b8315158152606060208201526000612a0060608301856128a1565b9050826040830152949350505050565b634e487b7160e01b600052603260045260246000fd5b600081518084526020808501945080840160005b83811015612a5f5781516001600160a01b031687529582019590820190600101612a3a565b509495945050505050565b604081526000612a7d6040830185612a26565b82810360208481019190915284518083528582019282019060005b81811015612ab457845183529383019391830191600101612a98565b5090979650505050505050565b8183526000602080850194508260005b85811015612a5f578135612ae48161223e565b6001600160a01b031687529582019590820190600101612ad1565b604081526000612b13604083018688612ac1565b8281036020840152612b26818587612ac1565b979650505050505050565b604081526000612b45604083018688612ac1565b8281036020848101919091528482528591810160005b86811015612b82578335612b6e8161227b565b151582529282019290820190600101612b5b565b5098975050505050505050565b60018060a01b038616815284602082015260a060408201526000612bb660a08301866128a1565b606083019490945250608001529392505050565b600060018060a01b03808f168352808e166020840152808d1660408401526101206060840152612bff61012084018c8e61292e565b8381036080850152612c12818b8d61292e565b905081891660a085015283810360c0850152612c2f81888a61292e565b60e085019690965250505061010001529a9950505050505050505050565b60208082526014908201527318d51bdad95b88191bd95cdb89dd08195e1a5cdd60621b604082015260600190565b6000600019821415612c9d57634e487b7160e01b600052601160045260246000fd5b5060010190565b604081526000612cb76040830186612a26565b82810360208401528381526001600160fb1b03841115612cd657600080fd5b8360051b808660208401376000910160200190815295945050505050565b60018060a01b038716815285602082015260c060408201526000612d1b60c08301876128a1565b606083019590955250608081019290925260a090910152939250505056fea26469706673582212206663e7d14b1b29be5d9b89bf5748a72259acb2d653289a84ade0fd998e094f8a64736f6c634300080a0033",
    "linkReferences": {}
  }
}