{
  "abi": [
    {
      "inputs": [
        {
          "internalType": "address",
          "name": "_owner",
          "type": "address"
        },
        {
          "internalType": "contract Authority",
          "name": "_authority",
          "type": "address"
        }
      ],
      "stateMutability": "nonpayable",
      "type": "constructor"
    },
    {
      "anonymous": false,
      "inputs": [
        {
          "indexed": true,
          "internalType": "address",
          "name": "user",
          "type": "address"
        },
        {
          "indexed": true,
          "internalType": "contract Authority",
          "name": "newAuthority",
          "type": "address"
        }
      ],
      "name": "AuthorityUpdated",
      "type": "event"
    },
    {
      "anonymous": false,
      "inputs": [
        {
          "indexed": true,
          "internalType": "address",
          "name": "user",
          "type": "address"
        },
        {
          "indexed": true,
          "internalType": "contract ERC20",
          "name": "collateral",
          "type": "address"
        },
        {
          "indexed": false,
          "internalType": "uint256",
          "name": "newBoostCap",
          "type": "uint256"
        }
      ],
      "name": "BoostCapUpdatedForCollateral",
      "type": "event"
    },
    {
      "anonymous": false,
      "inputs": [
        {
          "indexed": true,
          "internalType": "address",
          "name": "user",
          "type": "address"
        },
        {
          "indexed": true,
          "internalType": "contract ERC4626",
          "name": "vault",
          "type": "address"
        },
        {
          "indexed": false,
          "internalType": "uint256",
          "name": "newBoostCap",
          "type": "uint256"
        }
      ],
      "name": "BoostCapUpdatedForVault",
      "type": "event"
    },
    {
      "anonymous": false,
      "inputs": [
        {
          "indexed": true,
          "internalType": "address",
          "name": "user",
          "type": "address"
        },
        {
          "indexed": false,
          "internalType": "bool",
          "name": "frozen",
          "type": "bool"
        }
      ],
      "name": "FreezeStatusUpdated",
      "type": "event"
    },
    {
      "anonymous": false,
      "inputs": [
        {
          "indexed": true,
          "internalType": "address",
          "name": "user",
          "type": "address"
        },
        {
          "indexed": true,
          "internalType": "address",
          "name": "newOwner",
          "type": "address"
        }
      ],
      "name": "OwnerUpdated",
      "type": "event"
    },
    {
      "inputs": [],
      "name": "REVERSE_REGISTRAR",
      "outputs": [
        {
          "internalType": "contract IReverseRegistrar",
          "name": "",
          "type": "address"
        }
      ],
      "stateMutability": "view",
      "type": "function"
    },
    {
      "inputs": [],
      "name": "authority",
      "outputs": [
        {
          "internalType": "contract Authority",
          "name": "",
          "type": "address"
        }
      ],
      "stateMutability": "view",
      "type": "function"
    },
    {
      "inputs": [
        {
          "internalType": "uint256",
          "name": "",
          "type": "uint256"
        }
      ],
      "name": "boostableVaults",
      "outputs": [
        {
          "internalType": "contract ERC4626",
          "name": "",
          "type": "address"
        }
      ],
      "stateMutability": "view",
      "type": "function"
    },
    {
      "inputs": [
        {
          "internalType": "contract TurboSafe",
          "name": "safe",
          "type": "address"
        },
        {
          "internalType": "contract ERC20",
          "name": "collateral",
          "type": "address"
        },
        {
          "internalType": "contract ERC4626",
          "name": "vault",
          "type": "address"
        },
        {
          "internalType": "uint256",
          "name": "feiAmount",
          "type": "uint256"
        },
        {
          "internalType": "uint256",
          "name": "newTotalBoostedForVault",
          "type": "uint256"
        },
        {
          "internalType": "uint256",
          "name": "newTotalBoostedAgainstCollateral",
          "type": "uint256"
        }
      ],
      "name": "canSafeBoostVault",
      "outputs": [
        {
          "internalType": "bool",
          "name": "",
          "type": "bool"
        }
      ],
      "stateMutability": "view",
      "type": "function"
    },
    {
      "inputs": [],
      "name": "frozen",
      "outputs": [
        {
          "internalType": "bool",
          "name": "",
          "type": "bool"
        }
      ],
      "stateMutability": "view",
      "type": "function"
    },
    {
      "inputs": [
        {
          "internalType": "contract ERC20",
          "name": "",
          "type": "address"
        }
      ],
      "name": "getBoostCapForCollateral",
      "outputs": [
        {
          "internalType": "uint256",
          "name": "",
          "type": "uint256"
        }
      ],
      "stateMutability": "view",
      "type": "function"
    },
    {
      "inputs": [
        {
          "internalType": "contract ERC4626",
          "name": "",
          "type": "address"
        }
      ],
      "name": "getBoostCapForVault",
      "outputs": [
        {
          "internalType": "uint256",
          "name": "",
          "type": "uint256"
        }
      ],
      "stateMutability": "view",
      "type": "function"
    },
    {
      "inputs": [],
      "name": "getBoostableVaults",
      "outputs": [
        {
          "internalType": "contract ERC4626[]",
          "name": "",
          "type": "address[]"
        }
      ],
      "stateMutability": "view",
      "type": "function"
    },
    {
      "inputs": [],
      "name": "owner",
      "outputs": [
        {
          "internalType": "address",
          "name": "",
          "type": "address"
        }
      ],
      "stateMutability": "view",
      "type": "function"
    },
    {
      "inputs": [
        {
          "internalType": "contract Authority",
          "name": "newAuthority",
          "type": "address"
        }
      ],
      "name": "setAuthority",
      "outputs": [],
      "stateMutability": "nonpayable",
      "type": "function"
    },
    {
      "inputs": [
        {
          "internalType": "contract ERC20",
          "name": "collateral",
          "type": "address"
        },
        {
          "internalType": "uint256",
          "name": "newBoostCap",
          "type": "uint256"
        }
      ],
      "name": "setBoostCapForCollateral",
      "outputs": [],
      "stateMutability": "nonpayable",
      "type": "function"
    },
    {
      "inputs": [
        {
          "internalType": "contract ERC4626",
          "name": "vault",
          "type": "address"
        },
        {
          "internalType": "uint256",
          "name": "newBoostCap",
          "type": "uint256"
        }
      ],
      "name": "setBoostCapForVault",
      "outputs": [],
      "stateMutability": "nonpayable",
      "type": "function"
    },
    {
      "inputs": [
        {
          "internalType": "string",
          "name": "name",
          "type": "string"
        }
      ],
      "name": "setENSName",
      "outputs": [],
      "stateMutability": "nonpayable",
      "type": "function"
    },
    {
      "inputs": [
        {
          "internalType": "bool",
          "name": "freeze",
          "type": "bool"
        }
      ],
      "name": "setFreezeStatus",
      "outputs": [],
      "stateMutability": "nonpayable",
      "type": "function"
    },
    {
      "inputs": [
        {
          "internalType": "address",
          "name": "newOwner",
          "type": "address"
        }
      ],
      "name": "setOwner",
      "outputs": [],
      "stateMutability": "nonpayable",
      "type": "function"
    }
  ],
  "bytecode": {
    "object": "0x608060405234801561001057600080fd5b50604051610cd8380380610cd883398101604081905261002f916100e1565b600080546001600160a01b03199081166001600160a01b0385811691821784556001805490931690851617909155604051849284929133917f8292fce18fa69edf4db7b94ea2e58241df0ae57f97e0a6c9b29067028bf92d7691a36040516001600160a01b0382169033907fa3396fd7f6e0a21b50e5089d2da70d5ac0a3bbbd1f617a93f134b7638998019890600090a35050505061011b565b6001600160a01b03811681146100de57600080fd5b50565b600080604083850312156100f457600080fd5b82516100ff816100c9565b6020840151909250610110816100c9565b809150509250929050565b610bae8061012a6000396000f3fe608060405234801561001057600080fd5b50600436106100f55760003560e01c806378ab9ea8116100975780639d4c2af7116100665780639d4c2af714610231578063aafe3c7514610244578063ab3f120d14610257578063bf7e214f1461026a57600080fd5b806378ab9ea8146101b85780637a9e5e4b146101d85780638da5cb5b146101eb578063952899fc1461021657600080fd5b806313af4035116100d357806313af403514610151578063401e11c51461016457806341edb7751461019257806377dd4ac3146101a557600080fd5b80630225c09e146100fa578063054f7d9c146101185780630ae0f6cb1461013c575b600080fd5b61010261027d565b60405161010f9190610875565b60405180910390f35b60015461012c90600160a01b900460ff1681565b604051901515815260200161010f565b61014f61014a3660046108da565b6102df565b005b61014f61015f366004610906565b610375565b610184610172366004610906565b60036020526000908152604090205481565b60405190815260200161010f565b61014f6101a0366004610938565b6103f2565b61014f6101b336600461096b565b61047e565b6101846101c6366004610906565b60046020526000908152604090205481565b61014f6101e6366004610906565b61052e565b6000546101fe906001600160a01b031681565b6040516001600160a01b03909116815260200161010f565b6101fe73084b1c3c81545d370f3634392de611caabff814881565b61012c61023f366004610a1c565b610618565b61014f6102523660046108da565b61067c565b6101fe610265366004610a81565b6107a1565b6001546101fe906001600160a01b031681565b606060028054806020026020016040519081016040528092919081815260200182805480156102d557602002820191906000526020600020905b81546001600160a01b031681526001909101906020018083116102b7575b5050505050905090565b6102f5336000356001600160e01b0319166107cb565b61031a5760405162461bcd60e51b815260040161031190610a9a565b60405180910390fd5b6001600160a01b038216600081815260046020526040908190208390555133907f67e4d5adfb8b1297b3a6aefe54aef4a4b06b32d69d207aeebb98d6bdce4383ea906103699085815260200190565b60405180910390a35050565b61038b336000356001600160e01b0319166107cb565b6103a75760405162461bcd60e51b815260040161031190610a9a565b600080546001600160a01b0319166001600160a01b0383169081178255604051909133917f8292fce18fa69edf4db7b94ea2e58241df0ae57f97e0a6c9b29067028bf92d769190a350565b610408336000356001600160e01b0319166107cb565b6104245760405162461bcd60e51b815260040161031190610a9a565b60018054821515600160a01b0260ff60a01b1990911617905560405133907f2fe4ac858c92a82277540eb653993c6d95d8a4ac21d4d2710ef66d944e66c2e69061047390841515815260200190565b60405180910390a250565b610494336000356001600160e01b0319166107cb565b6104b05760405162461bcd60e51b815260040161031190610a9a565b60405163c47f002760e01b815273084b1c3c81545d370f3634392de611caabff81489063c47f0027906104e7908490600401610ac0565b6020604051808303816000875af1158015610506573d6000803e3d6000fd5b505050506040513d601f19601f8201168201806040525081019061052a9190610b15565b5050565b6000546001600160a01b03163314806105c3575060015460405163b700961360e01b81526001600160a01b039091169063b70096139061058290339030906001600160e01b03196000351690600401610b2e565b602060405180830381865afa15801561059f573d6000803e3d6000fd5b505050506040513d601f19601f820116820180604052508101906105c39190610b5b565b6105cc57600080fd5b600180546001600160a01b0319166001600160a01b03831690811790915560405133907fa3396fd7f6e0a21b50e5089d2da70d5ac0a3bbbd1f617a93f134b7638998019890600090a350565b600154600090600160a01b900460ff1615801561064d57506001600160a01b0385166000908152600360205260409020548311155b801561067157506001600160a01b0386166000908152600460205260409020548211155b979650505050505050565b610692336000356001600160e01b0319166107cb565b6106ae5760405162461bcd60e51b815260040161031190610a9a565b806106e95760405162461bcd60e51b815260206004820152600b60248201526a636170206973207a65726f60a81b6044820152606401610311565b6001600160a01b03821660009081526003602052604090205461075257600280546001810182556000919091527f405787fa12a823e0f2b7631cc41b3ba8828b3321ca811111fa75cd3aa3bb5ace0180546001600160a01b0319166001600160a01b0384161790555b6001600160a01b038216600081815260036020526040908190208390555133907f3d9639f4ecd206b5c3026887333172ab506945b37637997045cffd5f260a7136906103699085815260200190565b600281815481106107b157600080fd5b6000918252602090912001546001600160a01b0316905081565b6001546000906001600160a01b03168015801590610855575060405163b700961360e01b81526001600160a01b0382169063b70096139061081490879030908890600401610b2e565b602060405180830381865afa158015610831573d6000803e3d6000fd5b505050506040513d601f19601f820116820180604052508101906108559190610b5b565b8061086d57506000546001600160a01b038581169116145b949350505050565b6020808252825182820181905260009190848201906040850190845b818110156108b65783516001600160a01b031683529284019291840191600101610891565b50909695505050505050565b6001600160a01b03811681146108d757600080fd5b50565b600080604083850312156108ed57600080fd5b82356108f8816108c2565b946020939093013593505050565b60006020828403121561091857600080fd5b8135610923816108c2565b9392505050565b80151581146108d757600080fd5b60006020828403121561094a57600080fd5b81356109238161092a565b634e487b7160e01b600052604160045260246000fd5b60006020828403121561097d57600080fd5b813567ffffffffffffffff8082111561099557600080fd5b818401915084601f8301126109a957600080fd5b8135818111156109bb576109bb610955565b604051601f8201601f19908116603f011681019083821181831017156109e3576109e3610955565b816040528281528760208487010111156109fc57600080fd5b826020860160208301376000928101602001929092525095945050505050565b60008060008060008060c08789031215610a3557600080fd5b8635610a40816108c2565b95506020870135610a50816108c2565b94506040870135610a60816108c2565b959894975094956060810135955060808101359460a0909101359350915050565b600060208284031215610a9357600080fd5b5035919050565b6020808252600c908201526b15539055551213d49256915160a21b604082015260600190565b600060208083528351808285015260005b81811015610aed57858101830151858201604001528201610ad1565b81811115610aff576000604083870101525b50601f01601f1916929092016040019392505050565b600060208284031215610b2757600080fd5b5051919050565b6001600160a01b0393841681529190921660208201526001600160e01b0319909116604082015260600190565b600060208284031215610b6d57600080fd5b81516109238161092a56fea2646970667358221220d6d392c7d1013a15bb9d56d665363763b481dc2ce884b0eb0fa6eb98603db27b64736f6c634300080a0033",
    "linkReferences": {}
  }
}